:100000000C9462000C948A000C948A000C948A0070
:100010000C948A000C948A000C948A000C948A0038
:100020000C948A000C948A000C948A000C948A0028
:100030000C948A000C948A000C948A000C948A0018
:100040000C94B5030C948A000C94B5010C948A00AE
:100050000C948A000C948A000C948A000C948A00F8
:100060000C948A000C948A000000000024002700F1
:100070002A0000000000250028002B0000000000DE
:1000800023002600290004040404040404040202DA
:100090000202020203030303030301020408102007
:1000A0004080010204081020010204081020000012
:1000B0000007000201000003040600000000000029
:1000C0000000AA0211241FBECFEFD4E0DEBFCDBFD7
:1000D00011E0A0E0B1E0EAE2FAE002C005900D9282
:1000E000A830B107D9F711E0A8E0B1E001C01D9236
:1000F000AE3AB107E1F710E0C4ECD0E004C02297BB
:10010000FE010E940F05C23CD107C9F70E94AE0153
:100110000C9413050C9400000F931F9300E911E059
:10012000C80149EB50E060E070E020E030E00E9460
:10013000A00368EC70E080E090E00E94250464EF8A
:1001400071E080E090E00E942504C80149EB50E096
:1001500060E070E020E030E00E94A00368EC70E016
:1001600080E090E00E9425041F910F910895AC015A
:1001700041585F4F662757FD6095762F80E991E0E3
:1001800020E030E00E94A00368EC70E080E090E0A6
:100190000E9425040895CF92DF92EF92FF920F9371
:1001A0001F937C0180E9C82E81E0D82EC6014AEB5E
:1001B00050E060E070E020E030E00E94A00364E6E0
:1001C00070E080E090E00E9425048FE790E0E80E68
:1001D000F91E0027F7FC0095102FC601B801A701F2
:1001E00020E030E00E94A00364E670E080E090E050
:1001F0000E9425041F910F91FF90EF90DF90CF9008
:1002000008959C0180978C35910510F020E230E034
:10021000A901662757FD6095762F80E991E020E0DF
:1002200030E00E94A00364E170E080E090E00E9472
:10023000250480E991E04FEF50E060E070E020E0BD
:1002400030E00E94A00364E170E080E090E00E9452
:10025000250480E991E04EEB50E060E070E020E0A2
:1002600030E00E94A00364E170E080E090E00E9432
:100270002504089580E991E00E945B028823E1F162
:1002800080E991E00E946F0290930B0180930A0134
:100290008E37910541F480E090E00E94CB001092EF
:1002A0000B0110920A0180910A0190910B01803696
:1002B000910579F48091080190910901019690933C
:1002C0000901809308010E94B70010920B0110925F
:1002D0000A0180910A0190910B01875A924C31F4E6
:1002E0000E948C0010920B0110920A0180910A0169
:1002F00090910B010E94010108950F931F9300E953
:1003000011E0C80140E052EC61E070E00E94F201AF
:100310008091000161E00E948904C8014AEB50E02D
:1003200060E070E020E030E00E94A00368EC70E044
:1003300080E090E00E942504C8014FE750E060E0B3
:1003400070E020E030E00E94A00368EC70E080E004
:1003500090E00E9425041F910F9108950E944F0480
:100360000E947D010E943A01FDCF1F920F920FB6AD
:100370000F9211242F933F934F935F936F937F932B
:100380008F939F93AF93BF93EF93FF934091C600DA
:10039000E0918C01F0918D01CF01019660E870E051
:1003A0000E94A9049C0180918E0190918F012817D1
:1003B000390739F0E45FFE4F408330938D0120937D
:1003C0008C01FF91EF91BF91AF919F918F917F91A0
:1003D0006F915F914F913F912F910F900FBE0F90B2
:1003E0001F901895AF92BF92CF92DF92EF92FF923B
:1003F0000F931F93CF93DF936C017A018B01DC0184
:100400001496AD90BC901597CB01BA0122E030E074
:1004100040E050E00E94DE04205C3D4B404F5F4FC7
:10042000CA01B901A80197010E94DE04C901DA01DD
:100430000197A109B109292F3A2F4B2F552747FDC5
:100440005A950196A11DB11DE5012883E601EE81B3
:10045000FF8181508083EA85FB85208141E050E067
:10046000CA010E8402C0880F991F0A94E2F7282B54
:100470002083EA85FB852081CA010F8402C0880F92
:10048000991F0A94E2F7282B2083EA85FB85808157
:10049000088802C0440F551F0A94E2F7842B80831A
:1004A000DF91CF911F910F91FF90EF90DF90CF9050
:1004B000BF90AF900895DC011296ED91FC911397D7
:1004C000E058FF4F8191919180589F4F2081318159
:1004D000821B930B60E870E00E94A9040895CF93FB
:1004E000DF93DC011296ED91FC911397EF01CE574B
:1004F000DF4F48815981E058FF4F80819181E0585A
:10050000F0408417950719F42FEF3FEF0CC0E40F6C
:10051000F51F2081CA01019660E870E00E94A904DD
:100520009983888330E0C901DF91CF910895FC0160
:10053000A085B18521898C9190E0022E02C095950D
:1005400087950A94E2F780FFF6CF0484F585E02DC5
:100550006083089586E091E09093910180939001EB
:100560008CE091E0909393018093920185EC90E070
:10057000909395018093940184EC90E0909397017F
:100580008093960180EC90E090939901809398017C
:1005900081EC90E090939B0180939A0186EC90E02F
:1005A00090939D0180939C0184E080939E0183E061
:1005B00080939F0187E08093A00185E08093A10153
:1005C00008952F923F924F925F926F927F928F92F7
:1005D0009F92AF92BF92CF92DF92EF92FF920F93D2
:1005E0001F93DF93CF93CDB7DEB7A0970FB6F894E4
:1005F000DEBF0FBECDBF1C016A017B014115510555
:100600006105710549F4DC01ED91FC910190F081E7
:10061000E02D60E3099554C0882499245401422EAA
:1006200055246624772401E010E00C0F1D1F080DEF
:10063000191DC701B601A30192010E94BC04F80173
:1006400060830894811C911CA11CB11CC701B601D8
:10065000A30192010E94BC04C901DA016C017D0171
:10066000C114D104E104F104F1F681E0E82EF12C8B
:10067000EC0EFD1EE80CF91C3E010894611C711C77
:10068000D501C4010197A109B1096C01C818D908A5
:1006900014C0F601EE0DFF1D60816A3010F4605D3C
:1006A00001C0695CD101ED91FC910190F081E02DD8
:1006B000C10109950894E108F1086E147F0449F717
:1006C000A0960FB6F894DEBF0FBECDBFCF91DF91DD
:1006D0001F910F91FF90EF90DF90CF90BF90AF9060
:1006E0009F908F907F906F905F904F903F902F9052
:1006F0000895EF92FF920F931F93CF93DF93EC0136
:100700007A018B0177FF0FC0E881F9810190F081B8
:10071000E02D6DE2099510950095F094E094E11CB0
:10072000F11C011D111DCE01B801A7012AE00E9494
:10073000E102DF91CF911F910F91FF90EF9008950B
:10074000DC012115310541F4ED91FC910190F0811E
:10075000E02D642F099508952A30310519F40E947F
:10076000790308950E94E10208951F920F920FB637
:100770000F9211242F938F939F93AF93BF938091E8
:10078000A2019091A301A091A401B091A5010196AD
:10079000A11DB11D8093A2019093A301A093A40178
:1007A000B093A5018091A6019091A701A091A80105
:1007B000B091A9018050904CAF4FBF4F8093A601DC
:1007C0009093A701A093A801B093A90127C080919D
:1007D000A6019091A701A091A801B091A90180580C
:1007E0009E43A040B0408093A6019093A701A093A0
:1007F000A801B093A9018091AA019091AB01A091A9
:10080000AC01B091AD010196A11DB11D8093AA016B
:100810009093AB01A093AC01B093AD018091A60180
:100820009091A701A091A801B091A90181589E4380
:10083000A040B04060F6BF91AF919F918F912F91F2
:100840000F900FBE0F901F901895EF92FF920F938D
:100850001F937B018C018FB7F8944091AA015091AE
:10086000AB016091AC017091AD018FBF2FB7F894CF
:100870008091AA019091AB01A091AC01B091AD0122
:100880002FBF841B950BA60BB70BE816F9060A07BA
:100890001B0760F71F910F91FF90EF9008957894D8
:1008A00084B5826084BD84B5816084BD85B5826075
:1008B00085BD85B5816085BDEEE6F0E08081816013
:1008C0008083E1E8F0E080818260808380818160C4
:1008D0008083E0E8F0E0808181608083E1EBF0E0FC
:1008E000808184608083E0EBF0E0808181608083A0
:1008F000EAE7F0E080818460808380818260808389
:100900008081816080838081806880831092C100B3
:100910000895282F30E0C90186569F4FFC0194911D
:100920002A573F4FF9018491882391F0E82FF0E096
:10093000EE0FFF1FE859FF4FA591B491662329F4EC
:100940008C91909589238C9308958C91892B8C930D
:10095000089597FB092E07260AD077FD04D049D0C9
:1009600006D000201AF4709561957F4F0895F6F730
:10097000909581959F4F0895A1E21A2EAA1BBB1B4B
:10098000FD010DC0AA1FBB1FEE1FFF1FA217B3075B
:10099000E407F50720F0A21BB30BE40BF50B661F71
:1009A000771F881F991F1A9469F760957095809535
:1009B00090959B01AC01BD01CF01089597FB092ED5
:1009C00005260ED057FD04D0D7DF0AD0001C38F41E
:1009D00050954095309521953F4F4F4F5F4F08956B
:1009E000F6F790958095709561957F4F8F4F9F4F4B
:1009F0000895AA1BBB1B51E107C0AA1FBB1FA61766
:100A0000B70710F0A61BB70B881F991F5A95A9F7B7
:100A100080959095BC01CD010895EE0FFF1F0590C4
:0A0A2000F491E02D0994F894FFCF43
:080A2A000D000000000097021E
:00000001FF
