:100000000C9462000C948A000C948A000C948A0070
:100010000C948A000C948A000C948A000C948A0038
:100020000C948A000C948A000C948A000C948A0028
:100030000C948A000C948A000C948A000C948A0018
:100040000C941B030C948A000C94F9000C948A0005
:100050000C948A000C948A000C948A000C948A00F8
:100060000C948A000C948A000000000024002700F1
:100070002A0000000000250028002B0000000000DE
:1000800023002600290004040404040404040202DA
:100090000202020203030303030301020408102007
:1000A0004080010204081020010204081020000012
:1000B0000007000201000003040600000000000029
:1000C0000000EE0111241FBECFEFD4E0DEBFCDBF94
:1000D00011E0A0E0B1E0EAE6FAE002C005900D927E
:1000E000AC30B107D9F711E0ACE0B1E001C01D922E
:1000F000A43BB107E1F710E0C4ECD0E004C02297C4
:10010000FE010E942F05C23CD107C9F70E94F200F0
:100110000C9433050C940000809102010E947A0433
:1001200090930D0180930C011816190634F481E0A8
:1001300090E09093110180931001809110019091B3
:100140001101892B79F086E991E06EE60E943C026C
:1001500064E670E080E090E00E948B031092110151
:100160001092100186E991E00E949F01882341F0DE
:1001700086E991E00E94B30190930F0180930E01F4
:1001800080910E0190910F018834910521F48091A6
:10019000000161E003C08091000160E00E942D0435
:1001A00080E00E94EF03BC0186E991E00E940B030E
:1001B00064E670E080E090E00E948B03089586E999
:1001C00091E040E855E260E070E00E9436018091E5
:1001D000000161E00E940D048091020160E00E9434
:1001E0000D0408950E94B5030E94DF000E948C0058
:1001F000FDCF1F920F920FB60F9211242F933F93B2
:100200004F935F936F937F938F939F93AF93BF931E
:10021000EF93FF934091C600E0919201F09193011A
:10022000CF01019660E870E00E94C9049C018091B2
:100230009401909195012817390739F0EE5EFE4F31
:1002400040833093930120939201FF91EF91BF91EE
:10025000AF919F918F917F916F915F914F913F915E
:100260002F910F900FBE0F901F901895AF92BF92D5
:10027000CF92DF92EF92FF920F931F93CF93DF9372
:100280006C017A018B01DC011496AD90BC9015973E
:10029000CB01BA0122E030E040E050E00E94FE04D1
:1002A000205C3D4B404F5F4FCA01B901A801970147
:1002B0000E94FE04C901DA010197A109B109292FA1
:1002C0003A2F4B2F552747FD5A950196A11DB11D79
:1002D000E5012883E601EE81FF8181508083EA8574
:1002E000FB85208141E050E0CA010E8402C0880FE6
:1002F000991F0A94E2F7282B2083EA85FB85208149
:10030000CA010F8402C0880F991F0A94E2F7282BB4
:100310002083EA85FB858081088802C0440F551F31
:100320000A94E2F7842B8083DF91CF911F910F9184
:10033000FF90EF90DF90CF90BF90AF900895DC01D9
:100340001296ED91FC911397E058FF4F8191919196
:1003500080589F4F20813181821B930B60E870E0B1
:100360000E94C9040895CF93DF93DC011296ED91AA
:10037000FC911397EF01CE57DF4F48815981E05828
:10038000FF4F80819181E058F0408417950719F460
:100390002FEF3FEF0CC0E40FF51F2081CA0101963B
:1003A00060E870E00E94C9049983888330E0C90145
:1003B000DF91CF910895FC01A085B18521898C91B1
:1003C00090E0022E02C0959587950A94E2F780FF8F
:1003D000F6CF0484F585E02D6083089589E091E0EF
:1003E000909397018093960182E191E09093990117
:1003F0008093980185EC90E090939B0180939A0103
:1004000084EC90E090939D0180939C0180EC90E0BF
:1004100090939F0180939E0181EC90E09093A101C5
:100420008093A00186EC90E09093A3018093A201B9
:1004300084E08093A40183E08093A50187E080930A
:10044000A60185E08093A70108950F931F938C0167
:10045000DC01ED91FC910190F081E02D6DE00995BA
:10046000D801ED91FC910190F081E02DC8016AE086
:1004700009951F910F9108950F931F938C01DC0133
:10048000ED91FC910190F081E02D0995C8010E9449
:1004900025021F910F9108952F923F924F925F92E4
:1004A0006F927F928F929F92AF92BF92CF92DF9284
:1004B000EF92FF920F931F93DF93CF93CDB7DEB7E9
:1004C000A0970FB6F894DEBF0FBECDBF1C016A0126
:1004D0007B01411551056105710549F4DC01ED9180
:1004E000FC910190F081E02D60E3099554C08824CF
:1004F00099245401422E55246624772401E010E00B
:100500000C0F1D1F080D191DC701B601A301920193
:100510000E94DC04F80160830894811C911CA11CDA
:10052000B11CC701B601A30192010E94DC04C901FC
:10053000DA016C017D01C114D104E104F104F1F68A
:1005400081E0E82EF12CEC0EFD1EE80CF91C3E01BA
:100550000894611C711CD501C4010197A109B1095E
:100560006C01C818D90814C0F601EE0DFF1D60819A
:100570006A3010F4605D01C0695CD101ED91FC91BD
:100580000190F081E02DC10109950894E108F1087E
:100590006E147F0449F7A0960FB6F894DEBF0FBE25
:1005A000CDBFCF91DF911F910F91FF90EF90DF9022
:1005B000CF90BF90AF909F908F907F906F905F9003
:1005C0004F903F902F900895EF92FF920F931F93BB
:1005D000CF93DF93EC017A018B0177FF0FC0E881A5
:1005E000F9810190F081E02D6DE20995109500955B
:1005F000F094E094E11CF11C011D111DCE01B80125
:10060000A7012AE00E944C02DF91CF911F910F9128
:10061000FF90EF9008950F931F938C01AB01662715
:1006200057FD6095762F0E94E402C8010E942502C2
:100630001F910F9108951F920F920FB60F921124E0
:100640002F938F939F93AF93BF938091A801909125
:10065000A901A091AA01B091AB010196A11DB11D04
:100660008093A8019093A901A093AA01B093AB0134
:100670008091AC019091AD01A091AE01B091AF011C
:100680008050904CAF4FBF4F8093AC019093AD0121
:10069000A093AE01B093AF0127C08091AC019091BF
:1006A000AD01A091AE01B091AF0180589E43A04032
:1006B000B0408093AC019093AD01A093AE01B09394
:1006C000AF018091B0019091B101A091B201B091C0
:1006D000B3010196A11DB11D8093B0019093B101AA
:1006E000A093B201B093B3018091AC019091AD01A0
:1006F000A091AE01B091AF0181589E43A040B0409F
:1007000060F6BF91AF919F918F912F910F900FBE87
:100710000F901F901895EF92FF920F931F937B01FC
:100720008C018FB7F8944091B0015091B101609164
:10073000B2017091B3018FBF2FB7F8948091B001CF
:100740009091B101A091B201B091B3012FBF841B70
:10075000950BA60BB70BE816F9060A071B0760F7FF
:100760001F910F91FF90EF900895789484B5826067
:1007700084BD84B5816084BD85B5826085BD85B545
:10078000816085BDEEE6F0E0808181608083E1E8F4
:10079000F0E0808182608083808181608083E0E8F6
:1007A000F0E0808181608083E1EBF0E08081846013
:1007B0008083E0EBF0E0808181608083EAE7F0E015
:1007C0008081846080838081826080838081816079
:1007D00080838081806880831092C1000895877033
:1007E000909104019295990F990F907C982B90937A
:1007F0007C0080917A00806480937A0080917A00F6
:1008000086FDFCCF2091780040917900942F80E004
:1008100030E0282B392BC9010895282F30E0C90179
:1008200086569F4FFC0194912A573F4FF9018491BE
:10083000882391F0E82FF0E0EE0FFF1FE859FF4FFB
:10084000A591B491662329F48C91909589238C937A
:1008500008958C91892B8C930895482F50E0CA01FC
:1008600082559F4FFC012491CA0186569F4FFC017F
:1008700094914A575F4FFA0134913323D1F12223E7
:1008800031F1233021F4809180008F7705C024302E
:1008900031F4809180008F7D8093800018C02130DA
:1008A00019F484B58F7704C0223021F484B58F7D8C
:1008B00084BD0DC0263021F48091B0008F7705C033
:1008C000273029F48091B0008F7D8093B000E32F12
:1008D000F0E0EE0FFF1FEE58FF4FA591B491662395
:1008E00029F48C91909589238C9308958C91892B70
:1008F0008C930895682F70E0CB0182559F4FFC01C7
:100900002491CB0186569F4FFC0144916A577F4F3B
:10091000FB019491992319F420E030E038C02223A0
:1009200031F1233021F4809180008F7705C024308D
:1009300031F4809180008F7D8093800018C0213039
:1009400019F484B58F7704C0223021F484B58F7DEB
:1009500084BD0DC0263021F48091B0008F7705C092
:10096000273029F48091B0008F7D8093B000892FCB
:1009700090E0880F991F84589F4FFC01A591B49176
:100980008C9120E030E0842311F021E030E0C901B7
:10099000089597FB092E07260AD077FD04D049D089
:1009A00006D000201AF4709561957F4F0895F6F7F0
:1009B000909581959F4F0895A1E21A2EAA1BBB1B0B
:1009C000FD010DC0AA1FBB1FEE1FFF1FA217B3071B
:1009D000E407F50720F0A21BB30BE40BF50B661F31
:1009E000771F881F991F1A9469F7609570958095F5
:1009F00090959B01AC01BD01CF01089597FB092E95
:100A000005260ED057FD04D0D7DF0AD0001C38F4DD
:100A100050954095309521953F4F4F4F5F4F08952A
:100A2000F6F790958095709561957F4F8F4F9F4F0A
:100A30000895AA1BBB1B51E107C0AA1FBB1FA61725
:100A4000B70710F0A61BB70B881F991F5A95A9F777
:100A500080959095BC01CD010895EE0FFF1F059084
:0A0A6000F491E02D0994F894FFCF03
:0C0A6A000D0002000100000000DB010094
:00000001FF
